S01700004763634170706C69636174696F6E332E7372656359
S11300000C9434000C943E000C943E000C943E007E
S11300100C943E000C943E000C943E000C943E0064
S11300200C943E000C943E000C943E000C943E0054
S11300300C943E000C943E000C943E000C943E0044
S11300400C943E000C943E000C943E000C943E0034
S11300500C943E000C943E000C943E000C943E0024
S11300600C943E000C943E0011241FBECFEFD8E048
S1130070DEBFCDBF0E9440000C9455000C940000DC
S113008086E084B91B9904C085B18D7785B903C016
S113009085B1826085B91C9904C085B18B7385B91B
S11100A0F1CF85B1846085B9EDCFF894FFCF20
S9030000FC
