:100000000C9434000C943E000C943E000C943E0082
:100010000C943E000C943E000C943E000C943E0068
:100020000C943E000C943E000C943E000C943E0058
:100030000C943E000C943E000C943E000C943E0048
:100040000C943E000C943E000C943E000C943E0038
:100050000C943E000C943E000C943E000C943E0028
:100060000C943E000C943E0011241FBECFEFD8E04C
:10007000DEBFCDBF0E9440000C9455000C940000E0
:1000800085E084B91B9904C085B18E7F85B903C012
:1000900085B1816085B91B9904C085B18B7F85B915
:0E00A000F1CF85B1846085B9EDCFF894FFCF24
:00000001FF
